:020000040800F2
:10000000C81E002001010008A5350008792F00084E
:10001000A135000809090008CD44000800000000CF
:1000200000000000000000000000000091390008FE
:10003000350B00080000000065390008113D00087C
:100040001B0100081B0100081B0100081B01000820
:100050001B0100081B0100081B0100081B01000810
:100060001B0100081B0100081B0100081B01000800
:100070001B0100081B010008E90A0008F90A000832
:100080001B0100081B0100081B0100081B010008E0
:100090001B0100081B0100081B0100081B010008D0
:1000A0001B0100081B0100081B0100081B010008C0
:1000B0001B0100081B0100081B0100081B010008B0
:1000C0001B0100081B0100081B0100081B010008A0
:1000D0001B0100085D4400081B0100081B0100080B
:1000E0001B0100081B0100081B010008DFF80CD0F1
:1000F00000F0C6FA004800471D620008C81E002034
:100100000648804706480047FEE7FEE7FEE7FEE7B1
:10011000FEE7FEE7FEE7FEE7FEE7FEE79D3D00089F
:10012000ED000008202A04DB203A21FA02F0002129
:10013000704721FA02F3D040C2F1200291400843F7
:1001400019467047D2B201E000F8012B491EFBD2DC
:1001500070470022F6E710B513460A4604461946D2
:10016000FFF7F0FF204610BD2DE9F05F93460F46E4
:1001700080460446002605F0CBFBD0F8009082466E
:1001800014F8015B2DB100F06FF80068405DC00706
:10019000F6D12B2D02D02D2D1AD0641E0021CAF8C5
:1001A00000105A463946204600F062F8014627B151
:1001B0003868A04201D1C7F80080DAF800000228B0
:1001C00009D0CAF80090700505D54842BDE8F09FF7
:1001D00046F48066E2E70846F8E730B50B4601468C
:1001E00000202022012409E021FA02F59D4205D3D6
:1001F00003FA02F5491B04FA02F52844151EA2F180
:100200000102F1DC30BD2DE9F05F05460020924689
:100210009B4688460646814640241BE028464146C8
:1002200047462246FFF77EFF53465A46C01A914181
:1002300010D311461846224600F034FA2D1A67EB07
:1002400001084F4622460120002100F02BFA17EB4F
:1002500000094E41201EA4F10104DFDC484631466E
:100260002A464346BDE8F09F00487047A473000843
:100270002DE9F05F82460078002715468B460AF18B
:100280000104B946302801D09DB113E014F8010BE8
:100290000127782803D0582801D045B10AE00DB1D4
:1002A000102D07D10027102514F8010B02E00825B6
:1002B00000E00A250026B0460EE005FB080005FB1D
:1002C00006F1012701EB10461FFA80F8B6F5803FD2
:1002D00000D3B94614F8010B294600F004FA0028AF
:1002E000EBDABBF1000F05D00FB1641E00E05446FD
:1002F000CBF80040B9F1000F06D005F009FB022150
:100300000160C81EBDE8F09F48EA0640FAE72DE903
:10031000FE4F804681EA0300C00F0C46009021F09A
:10032000004123F00045B8EB0200A94105D2404648
:10033000214690461C460B46024623F000401043DF
:1003400047D0270DC7F30A00C3F30A510290401AA1
:10035000019040286BDAC3F3130040F4801B00982F
:10036000924620B10023D2EB030A63EB0B0B0198FA
:100370005946C0F14002504600F094F906460D4639
:1003800050465946019A00F09CF910EB0800614173
:10039000002487EA115284EAE7731A4340D0009A96
:1003A00062B3019A012A4FEA075215DC001B61EB88
:1003B00002014FF0004202EA0752CDE90042001C60
:1003C00041F5801132462B4600F0AAF903B0BDE892
:1003D000F08F40462146F9E7001B61EB0201001C4B
:1003E00041F5801300185B412018A2F5001747EB78
:1003F000030140EAD570B6196D4111E06D084FEA6E
:10040000360645EAC0754FEA0752001B61EB020150
:10041000001C41F5801149084FEA30000019514194
:1004200032462B4603B0BDE8F04F00F06AB90098A1
:10043000012240000023D0EB020263EBE07300983E
:1004400021464FEAE074B8EB000061EB0401E9E7F4
:1004500083F000435BE781F0004158E72DE9FE4F50
:1004600081EA030404F0004421F0004100944FF0BD
:10047000000B23F0004350EA01045ED052EA03046B
:100480005BD0C3F30A54C1F30A552C44A4F2F334ED
:100490000194A0FB0254C1F3130141F48011C3F392
:1004A000130343F4801301FB024400FB034E840A50
:1004B000970A44EA815447EA8357A4FB07680295E8
:1004C0008D0A05FB07854FEA932C04FB0C54270586
:1004D000029D4FEA065847EA1637B5EB08056EEB62
:1004E000070C870E920E47EA811742EA8312A7FB98
:1004F0000201B6EB0B0164EB00042B0D43EA0C3355
:100500005E1844EB1C50DA465146E7FB0201C5F386
:1005100013044FEA0B3343EA14534FEA0432019CAD
:1005200043EA0603A4F10C040294009CCDE900B454
:1005300000F0F6F803B0BDE8F08F00200146F9E7BF
:100540002DE9F04D81EA030404F0004B21F0004551
:1005500014464FF0000A23F0004150EA050220D073
:1005600054EA01021DD0C5F30A570246C5F313032E
:10057000C1F31300C1F30A5640F4801543F480130D
:10058000A7EB0608101BD64608F2FD3873EB0500F2
:1005900002D308F1010801E092185B41B8F1000FA5
:1005A00003DA00200146BDE8F08D00204FF48011F1
:1005B000064684460EE0171B73EB050705D3121B96
:1005C00063EB050306434CEA010C49084FEA30008F
:1005D00092185B4150EA0107EDD152EA030012D0B4
:1005E00082EA040083EA0501084305D0101BAB41F1
:1005F00006D20122002306E000224FF0004302E071
:100600006FF0010253101AEB06004CEB085110EB8F
:100610000A0041EB0B01BDE8F04D00F072B8C1F3E8
:100620000A52C1F3130140F2FF3341F480119A42A0
:1006300002DA00200146704740F233439A42A2F2A8
:10064000334202DC5242FFF76DBD00F02BB80000D0
:1006500030B5041E71F1000404DB4FF00044404249
:1006600064EB0101141E73F1000405DB1C464FF01E
:100670000043524263EB0403994208BF904230BDED
:10068000064C074D06E0E06840F0010394E80700DF
:1006900098471034AC42F6D3FFF72CFDA87300083E
:1006A000C8730008202A04DB203A00FA02F1002077
:1006B00070479140C2F1200320FA03F319439040A0
:1006C0007047202A06DBCB17203A41FA02F043EAB2
:1006D000E07306E041FA02F3D040C2F120029140FB
:1006E0000843194670473A2800D2303820F02002DB
:1006F000412A01D3A2F13700884201D34FF0FF30E5
:10070000704710B5141E73F1000408DA401C41F163
:10071000000192185B411A4301D120F0010010BD85
:100720002DE9F04D92469B4611B1B1FA81F202E0FB
:10073000B0FA80F220329046FFF7B4FF04460F462D
:1007400040EA0A0041EA0B0153465A46084313D0D7
:10075000114653EA010019D0C8F140025046FFF794
:10076000E1FC05460E46504659464246FFF79AFFC1
:10077000084305D0012004E020463946BDE8F08D4D
:100780000020054346EAE0762C4337430A98630588
:10079000E40AA0EB08000022FD0A44EA47540A30AC
:1007A00002D500200146E9E7010510196941DDE99C
:1007B000084500196941BDE8F04DA2E770B58D18F4
:1007C00010F8014B14F0030201D110F8012B231192
:1007D00006D110F8013B03E010F8016B01F8016B42
:1007E000521EF9D1ABB110F8012B04F00C048A1A97
:1007F0000C2C03D0A2EB84129B1C08E010F8014BD8
:10080000A2EB0422F8E712F8014B01F8014B5B1E42
:10081000F9D5A942D4D3002070BD70B50446002597
:100820002068806800F0010018B32068806820F01C
:1008300001002168886001F019F8054613E001F015
:1008400015F8401B02280ED92068806800F00100CE
:1008500048B1A06A40F01000A062E06A40F00100D8
:10086000E062012070BD2068806800F0010000286F
:10087000E5D10020F6E7000038B504460025002049
:1008800000902068806800F0010078BB20688068D4
:1008900040F0010021688860194800681949B0FBE0
:1008A000F1F0009002E00098401E009000980028AF
:1008B000F9D100F0DBFF054619E000F0D7FF401B3F
:1008C000022814D92068806800F0010078B9A06A75
:1008D00040F01000A062E06A40F00100E06200BF5A
:1008E000002084F8240000BF012038BD05E0206806
:1008F000806800F001000028DFD00020F5E700004C
:10090000D818002040420F0000BFFEE71FB50020AE
:10091000009001900290039000244FF4006000903A
:1009200000200190012002906946074800F0F6FD82
:100930004FF40061044800F081FF00B900E0012499
:10094000204604B010BD0000000801401FB5044659
:10095000002000900190029003904FF400600090FE
:10096000012001900020029003200390694608486E
:1009700000F0D4FD34B900224FF40061044800F0C7
:100980006FFF04E00122D102014800F069FF1FBDA2
:100990000008014070B5002400250020FFF7D6FFB5
:1009A000122000F0A7FD0122D1022B4800F058FFD1
:1009B000142000F0C1F8FFF7A9FF142000F0BCF8E4
:1009C0004FF40061244800F039FF00282AD103E0E9
:1009D000012000F0B1F800244FF400611E4800F03F
:1009E0002DFF08B9642CF3DB002404E0012000F0A3
:1009F000A3F8601CC4B24FF40061174800F01EFF5A
:100A0000012801D1642CF1DB0024002505E000F071
:100A100027F812494855681CC5B2052DF7DB32206E
:100A200000F08AF80D4800780C49497808440B49D1
:100A3000897808440949C978461808480079B042BD
:100A400008D1064800780549C87108468078887141
:100A5000012070BD0020FCE7000801405B18002069
:100A60002DE9F041002500270024002600BF30E0DA
:100A700004E0012000F060F8601CC4B24FF4006193
:100A8000164800F0DBFE08B9642CF2DB00242820B5
:100A900000F052F84FF40061104800F0CFFE01283A
:100AA00001D1012700E0002704E0012000F044F814
:100AB000601CC4B24FF40061084800F0BFFE01287A
:100AC00001D1642CF1DB00246806050E3D43701C47
:100AD000C6B2082ECCDB2846BDE8F08100080140F4
:100AE00010B503F0DBF910BD10B5024800F0B2FB01
:100AF00010BD0000401A002010B5024800F0AAFB0B
:100B000010BD0000841A002030B590F84050012438
:100B1000AC40C56B6C60046863604468102C04D101
:100B20000468A2600468E16003E00468A1600468EE
:100B3000E26030BD7047000070B504464FF6FF70AC
:100B4000001B401F85B2094800684562074801F054
:100B50004BFE03E005480068406A85B24FF6FA7024
:100B60008542F7DB014801F075FE70BDB019002029
:100B700072B600BFFEE7000038B502460023002031
:100B8000009000BF92F82400012801D1022038BD56
:100B9000012082F8240000BF4868072812D210689C
:100BA000406B0C79641E04EB84051F24AC40A04309
:100BB0000D796D1E05EB85050C68AC40204314686B
:100BC000606327E048680D2812D21068006B0C792A
:100BD000E41F04EB84051F24AC40A0430D79ED1FF6
:100BE00005EB85050C68AC4020431468206311E0D8
:100BF0001068C06A0C790D3C04EB84051F24AC40DE
:100C0000A0430D790D3D05EB85050C68AC402043F4
:100C10001468E06208680A2812D31068C0680C786B
:100C20000A3C04EB44050724AC40A0430D780A3D80
:100C300005EB45058C68AC4020431468E0600FE08C
:100C4000106800690C7804EB44050724AC40A0430D
:100C50000D7805EB45058C68AC4020431468206195
:100C60000868102802D00868112827D1174C10688E
:100C7000A0421ED11068806800F40000F0B910682E
:100C8000806840F400001468A0600868102815D13E
:100C90000F4800680F4CB0FBF4F000EB8000400000
:100CA000009002E00098401E009000980028F9D1C2
:100CB00004E0906A40F020009062012300BF002011
:100CC00082F8240000BF184661E7000000240140BC
:100CD000D818002040420F000146886A704701463C
:100CE0000868C06C704700002DE9F04104460027F9
:100CF00000250026A84614B90120BDE8F081A068AF
:100D000010B1207D00B100BFA06A30B90020E062C0
:100D100084F82400204600F089F82046FFF77DFD86
:100D20000746A06A00F01000002873D1002F71D18F
:100D3000A06A20F4885040F00200A062E169606877
:100D40000843217B40EA41000643A068B0F5807F5C
:100D500002D0A068012802D14FF4807000E000208A
:100D60000543207D012811D1207B38B9A069401EA0
:100D70004FF4006141EA4030054307E0A06A40F0CB
:100D80002000A062E06A40F00100E0622068406854
:100D900020F4694028432168486020688068214920
:100DA0000840304321688860A068B0F5807F02D099
:100DB000A068012802D14FF4807000E00020B0F557
:100DC000807F03D1208A401E4FEA00582068C06A05
:100DD00020F4700040EA08002168C862206880683A
:100DE00011490840B04208D10020E062A06A20F01A
:100DF000020040F00100A06211E0A06A20F00200B1
:100E000040F01000A062E06A40F00100E0620127BB
:100E100005E0FFE7A06A40F01000A0620127384615
:100E20006BE70000FDF7E1FFFE0E1FFF10B586B077
:100E30000446002002900390049005901449206815
:100E4000884222D100BF1348806940F400701149E4
:100E500088610846806900F40070019000BF00BFFF
:100E600000BF0846806940F0040088610846806938
:100E700000F00400019000BF00BF01200290032099
:100E8000039002A9044800F049FB06B010BD000021
:100E9000002401400010024000080140F8B504465B
:100EA0000D46002600200090002700F0DFFC0646DB
:100EB0002068806800F4807050B1A06A40F0200083
:100EC000A06200BF002084F8240000BF0120F8BD0C
:100ED0002068406800F4807020BB2068C06A00F47D
:100EE0007000F8B917E0681CA8B125B100F0BEFC8D
:100EF000801BA8420FD92068006800F0020050B99A
:100F0000A06A40F00400A06200BF002084F8240022
:100F100000BF0320DBE72068006800F00200002823
:100F2000E1D053E0022000F04DFF38490968B1FBE1
:100F3000F0F021680969364A114091B92168C96801
:100F40009211114069B921680969324A114031B9D9
:100F50002168C9689211114009B9142117E02921AB
:100F600015E0216809692B4A114021B92168C96837
:100F70009211114041B121680969274A114029B9EC
:100F80002168C968114009B9542100E0FC2100FB27
:100F900001F718E0681C98B125B100F067FC801BD0
:100FA000A8420DD90098B8420AD2A06A40F00400C5
:100FB000A06200BF002084F8240000BF032086E761
:100FC0000098401C00900098B842E3D36FF01200E4
:100FD00021680860A06A40F40070A0622068806800
:100FE00000F46020B0F5602F0DD1207B58B9A06AC5
:100FF00020F48070A062A06A00F4805018B9A06A42
:1010000040F00100A062002061E70000D818002035
:1010100024499224922449124992240070B504462E
:10102000002500BF94F82400012801D1022070BDE2
:10103000012084F8240000BF2046FFF71DFC054670
:10104000002D77D1A06A40F20121884340F48070DE
:10105000A0623C492068884208D13B48006800F4FF
:10106000702008B9012002E0002000E0012078B1E2
:10107000A06A20F48010A0622068406800F48060BC
:1010800000B3A06A20F4005040F48050A06219E040
:10109000A06A40F48010A0622B49091F2068884292
:1010A00003D028492068884204D12748006800F40A
:1010B000806000E0002028B1A06A20F4005040F4D5
:1010C0008050A062A06A00F4805020B1E06A20F055
:1010D0000600E06201E00020E06200BF002084F82A
:1010E000240000BFC01E216808602068806800F4EA
:1010F0006020B0F5602F16D112492068884208D1CF
:101100001148006800F4702008B9012002E00020B6
:1011100000E0012038B12068806840F4A000216818
:1011200088600CE006E02068806840F48010216848
:10113000886004E000BF002084F8240000BF284637
:1011400075E7000000280140042401400146002208
:1011500091F82100022808D00420886300BF0020F5
:1011600081F8200000BF012070470868006820F067
:101170000E000B6818600868006820F001000B681A
:10118000186091F8403001209840CB6B58600120E6
:1011900081F8210000BF002081F8200000BF104628
:1011A000E2E7000070B50446002594F8210002280B
:1011B00003D00420A063012548E02068006820F0E7
:1011C0000E00216808602068006820F00100216896
:1011D00008601F492068884201D1012026E01C498F
:1011E00014312068884201D110201FE018492831AD
:1011F0002068884201D1801518E015493C312068EB
:10120000884201D1801411E0114950312068884290
:1012100002D14FF4803009E00D49643120688842E2
:1012200002D14FF4801001E04FF080700849083976
:101230004860012084F8210000BF002084F82000CD
:1012400000BF606B10B12046616B8847284670BDB7
:101250000800024070B50446E06B05682068066827
:1012600094F84010042088402840002846D006F01A
:101270000400002842D02068006800F0200028B94F
:101280002068006820F00400216808605749206841
:10129000884201D1042027E0544914312068884253
:1012A00001D1402020E0514928312068884201D1F5
:1012B000001519E04D493C312068884202D14FF4B5
:1012C000804011E0494950312068884202D14FF4F2
:1012D000802009E0454964312068884202D14FF4FA
:1012E000800001E04FF08060404908394860E06AC2
:1012F00000287AD02046E16A884776E094F84010CA
:10130000022088402840A0B306F0020088B320687D
:10131000006800F0200040B92068006820F00A0052
:1013200021680860012084F8210030492068884243
:1013300001D1022028E02D4914312068884201D1D2
:10134000202021E0294928312068884201D1401518
:101350001AE026493C312068884202D14FF40050FF
:1013600012E0224950312068884203D14FF4003006
:101370000AE017E01D4964312068884202D14FF429
:10138000001001E04FF0007018490839486000BFB4
:10139000002084F8200000BFA06A30B32046A16A74
:1013A000884722E094F84010082088402840E0B1A7
:1013B00006F00800C8B12068006820F00E0021681F
:1013C000086094F8401001208840E16B48600120DB
:1013D000A06384F8210000BF002084F8200000BF33
:1013E000206B10B12046216B884770BD0800024079
:1013F0000146002209B901207047164B0868C01A3F
:101400001423B0FBF3F08000086412480838C86366
:10141000022081F821000868026843F6F0708243D8
:10142000D1E901031843CB6818430B6918434B6992
:1014300018438B691843CB6918430243086802605C
:1014400000208863012081F82100002081F820001D
:1014500000BFD1E7080002402DE9F04104460D46E7
:1014600016461F464FF0000800BF94F820000128E0
:1014700002D10220BDE8F081012084F8200000BFE5
:1014800094F8210001282CD1022084F821000020AA
:10149000A0632068006820F00100216808603B46D6
:1014A000324629462046FFF72FFBE06A30B120681C
:1014B000006840F00E00216808600BE020680068BA
:1014C00020F00400216808602068006840F00A00ED
:1014D000216808602068006840F001002168086009
:1014E00006E000BF002084F8200000BF4FF0020893
:1014F0004046BFE770B5044600F0B8F906462546F9
:10150000681C10B104480078054400BF00F0AEF933
:10151000801BA842FAD370BDD41800202DE9F847EB
:101520000346002294466EE14FF0010808FA02F4E7
:10153000D1F8008008EA0400A0427DD1DFF8DCA2E7
:10154000D1F80480A8EB0A09D0453AD014DCB8F1F0
:10155000030F50D009DCB8F1000F31D0B8F1010F02
:101560001CD0B8F1020F49D120E0B8F1110F18D00A
:10157000B8F1120F42D11EE0B9F5881F25D006DC64
:10158000B9F5803F20D0B9F5801F37D11AE0B9F501
:10159000001F18D0B9F5041F30D117E0D1F80CC0E6
:1015A0002DE0D1F80C8008F1040C28E0D1F80C8073
:1015B00008F1080C23E0D1F80C8008F10C0C1EE0B7
:1015C00000BF00BF00BF00BF00BF00BFD1F8088050
:1015D000B8F1000F02D14FF0040C0BE0D1F80880F5
:1015E000B8F1010F03D14FF0080C1C6102E04FF07D
:1015F000080C5C6103E04FF0000C00E000BF00BF8E
:10160000FF2801D8984601E003F104084646FF2868
:1016100002D84FEA820803E0A2F108084FEA8808DE
:101620004746D6F800804FF00F0909FA07F928EA73
:1016300009080CFA07F900E088E048EA0908C6F84A
:101640000080D1F8048008F08058B8F1805F7DD127
:1016500000BFDFF8CC81D8F8188048F00108DFF827
:10166000C091C9F81880C846D8F8188008F0010859
:10167000CDF8008000BF00BF4FEAB9384FEA9209A9
:1016800058F829504FEA82784FEA18794FF00F083E
:1016900008FA09F825EA0805DFF88881434502D1F0
:1016A0004FF0000816E0DFF88081434502D14FF08B
:1016B00001080FE0DFF87481434502D14FF00208C2
:1016C00008E0DFF86C81434502D14FF0030801E0E8
:1016D0004FF004084FEA82794FEA197908FA09F8BD
:1016E00048EA0505DFF84C814FEA920948F829508D
:1016F000D1F8048008F48018B8F5801F0AD1DFF80B
:101700003881D8F8008048EA0008DFF82C91C9F841
:10171000008009E0DFF82081D8F8008028EA00087E
:10172000DFF81491C9F80080D1F8048008F400189B
:10173000B8F5001F10D1DFF8008108F10408D8F8CF
:10174000008048EA0008DFF8F09000E05AE009F174
:101750000409C9F800800DE0DFF8DC8008F1040816
:10176000D8F8008028EA0008DFF8CC9009F10409D5
:10177000C9F80080D1F8048008F40038B8F5003FBB
:101780000ED1DFF8B480A8F10408D8F8008048EA48
:101790000008DFF8A490A9F10409C9F800800DE061
:1017A000DFF89480A8F10408D8F8008028EA00083F
:1017B000DFF88490A9F10409C9F80080D1F8048009
:1017C00008F48038B8F5803F0ED1DFF86C80A8F1BE
:1017D0000808D8F8008048EA0008DFF85C90A9F112
:1017E0000809C9F800800DE0DFF84C80A8F108086E
:1017F000D8F8008028EA0008DFF83C90A9F1080931
:10180000C9F80080521CD1F8008028FA02F8B8F11B
:10181000000F7FF489AEBDE8F887000000001110CA
:101820000010024000080140000C0140001001407F
:10183000001401400800014008040140024693687A
:101840000B400BB1012000E00020704710B5C268CA
:1018500021EA020302EA010443EA0443036110BDE2
:101860000AB1016101E00B0403617047014800689F
:1018700070470000CC18002070B504460CB9012058
:1018800070BD94F83D0028B9002084F83C00204643
:1018900000F08CF9242084F83D002068006820F0D6
:1018A0000100216808602068006840F40040216859
:1018B00008602068006820F400402168086000F09B
:1018C00063FC05465C496068884206D85B488542EF
:1018D00001D2012007E0002005E05948854201D2ED
:1018E000012000E00020012800D1C9E75548B5FBE0
:1018F000F0F62068406820F03F00304321684860DF
:101900004D496068884201D8701C07E04FF496701A
:1019100070434FF47A71B0FBF1F0401C2168096A02
:1019200021F03F010843216808624349606888420A
:1019300014D8681E61684900B0FBF1F0401CC0F388
:101940000B00042801D204203DE0681E61684900B4
:10195000B0FBF1F0401CC0F30B0034E0A06838B9D4
:10196000681E616801EB4101B0FBF1F0401C0AE028
:10197000681E616801EBC10202EB0111B0FBF1F0DE
:10198000401C40F48040C0F30B0008B901201AE06D
:10199000A06848B9681E616801EB4101B0FBF1F035
:1019A000401CC0F30B000CE0681E616801EBC10233
:1019B00002EB0111B0FBF1F0401CC0F30B0040F44E
:1019C000804040F400402168C9694CF6FF729143A1
:1019D00008432168C861D4E9070108432168096800
:1019E00021F0C001084321680860D4E903100843CE
:1019F0002168896848F2FF32914308432168886072
:101A0000D4E9050108432168C96821F0FF010843B2
:101A10002168C8602068006840F001002168086003
:101A200000202064202084F83D000020206384F8FA
:101A30003E0000BF24E70000A086010080841E0055
:101A400000093D0040420F002DE9FC5F04460F46AF
:101A500090469946DDE90CAB0E9EFFF707FF054661
:101A600094F83D0020287DD1192301224D492046BC
:101A7000009501F046FB10B10220BDE8FC9F00BFBD
:101A800094F83C00012801D10220F6E7012084F8F7
:101A90003C0000BF2068006800F0010028B9206801
:101AA000006840F00100216808602068006820F4A8
:101AB000006021680860212084F83D00402084F8FF
:101AC0003E0000202064C4F824A0A4F82AB0608D51
:101AD00020853548E0624B46424639462046CDE9EE
:101AE000006501F06BFA08B10120C6E731E02A4633
:101AF0003146204601F0E1FB50B1206C042805D1AD
:101B00002068006840F40070216808600120B4E794
:101B1000606A007821680861606A401C6062208DFC
:101B2000401E2085608D401E608520684069C0F39E
:101B3000800070B1208D60B1606A00782168086112
:101B4000606A401C6062208D401E2085608D401EB2
:101B50006085208D0028CAD12A463146204601F0F2
:101B60009DFA00E01CE050B1206C042805D12068EB
:101B7000006840F400702168086001207DE720685B
:101B8000006840F4007021680860202084F83D005F
:101B9000002084F83E0000BF84F83C0000BF6CE7E2
:101BA00002206AE7020010000000FFFF10B586B0B7
:101BB0000446002002900390049005901549206887
:101BC000884225D100BF1448806940F008001249BE
:101BD00088610846806900F00800019000BF00BFDE
:101BE000C0200290122003900320059002A90B4808
:101BF000FFF794FC00BF0848C06940F40010064994
:101C0000C8610846C06900F40010019000BF00BF21
:101C100006B010BD0054004000100240000C01400E
:101C2000034800680349097808440149086070477F
:101C3000CC180020D418002010B50848006840F0E7
:101C4000100006490860032000F0A8F80F2000F0FB
:101C500007F800F02BF8002010BD00000020024023
:101C600070B504460E4800784FF47A71B1FBF0F07D
:101C70000C490968B1FBF0F5284600F00FFD08B1EA
:101C8000012070BD102C07D200222146501E00F00A
:101C900047F80548046001E00120F2E70020F0E782
:101CA000D4180020D8180020D018002008B500BF94
:101CB0001148806940F001000F4988610846806939
:101CC00000F00100009000BF00BF00BF0846C069DF
:101CD00040F08050C8610846C06900F08050009014
:101CE00000BF00BF00BF0549486820F0E06040F039
:101CF0000070486000BF08BD0010024000000140B5
:101D000001460846002809DB00F01F0301229A4023
:101D100043099B0003F1E023C3F8002100BF704793
:101D20002DE9F05F80460D461646002703F0D4FDEE
:101D3000074639462A46334601F00700C0F1070A34
:101D4000BAF1040F02D94FF0040A01E0C0F1070A0A
:101D5000D14600F1040ABAF1070F02D24FF0000A8F
:101D600001E0A0F1030AD4464FF0010A0AFA09FA89
:101D7000AAF1010A0AEA020A0AFA0CFA4FF0010B68
:101D80000BFA0CFBABF1010B0BEA030B4AEA0B0459
:101D90002146404603F0A8FDBDE8F09F00BF00F0DB
:101DA0000702064B19684FF6FF031940044B0B431B
:101DB00043EA0221014B196000BF70470CED00E0BF
:101DC0000000FA052DE9F04706464FF0000800250F
:101DD00000270024A146012E31D0022E56D0102E0D
:101DE0005FD132484468006800F0807008B3304822
:101DF000C4F38341475C04F4803078B12B484068D9
:101E0000C0F340402B4911F8008004F4803040B109
:101E10002948B0FBF8F000FB07F502E0274807FB74
:101E200000F52248406800F48000B0F5800F01D131
:101E3000A94603E068000321B0FBF1F932E01B483A
:101E4000046A04F44070B0F5807F05D104F002000C
:101E500010B14FF4004918E004F44070B0F5007F71
:101E600007D11248406A00F0020010B149F640491B
:101E70000BE004F44070B0F5407F06D10B480068D9
:101E800000F4003008B14FF224490BE000F08CF967
:101E900006494968C1F38131491C4900B0FBF1F999
:101EA00000E000BF00BF4846BDE8F08700100240D8
:101EB000F87200080873000800127A0000093D005B
:101EC000F8B5044600260025207800F0010000281F
:101ED0006BD000274348C06900F0805070B900BF44
:101EE0004048C06940F080503E49C8610846C0691A
:101EF00000F08050009000BF00BF01273A48006802
:101F000000F48070B0B93848006840F480703649F9
:101F10000860FFF7ABFC064606E0FFF7A7FC801B56
:101F2000642801D90320F8BD2F48006800F48070B0
:101F30000028F2D02B48006A00F440752DB3A08829
:101F400000F44070A84220D02648006A20F4407572
:101F5000012026490860002008602248056205F03B
:101F6000010090B1FFF782FC064608E0FFF77EFC17
:101F7000801B41F28831884201D90320D3E71948F8
:101F8000006A00F002000028F0D01648006A20F431
:101F900040706168084313490862012F04D1084664
:101FA000C06920F08050C86100BF207800F00200B6
:101FB000022807D10B48406820F44040A16808433C
:101FC00008494860207800F01000102807D1054823
:101FD000406820F48000E16808430249486000201E
:101FE000A1E700000010024000700040400442429F
:101FF00070B504460D460CB9012070BD5A48006802
:1020000000F00700A8420ED25748006820F00700F1
:102010002843554908600846006800F00700A842B8
:1020200001D00120E9E7207800F0020002281DD14C
:10203000207800F00400042805D14C48406840F4A2
:10204000E0604A494860207800F00800082805D17F
:102050004648406840F460504449486043484068FE
:1020600020F0F000A168084340494860207800F063
:10207000010078B36068012806D13C48006800F48C
:10208000003090B90120B8E76068022806D13748CF
:10209000006800F0007040B90120AEE733480068E6
:1020A00000F0020008B90120A7E73048406820F09E
:1020B0000300616808432D494860FFF7D7FB0646D7
:1020C00009E0FFF7D3FB801B41F28831884202D937
:1020D000032092E707E02548406800F00C006168A3
:1020E000B0EB810FEDD12048006800F00700A84256
:1020F0000ED91D48006820F0070028431A490860DF
:102100000846006800F00700A84201D0012074E7EB
:10211000207800F00400042807D11448406820F417
:10212000E060E168084311494860207800F0080049
:10213000082808D10D48406820F46050216940EA21
:10214000C1000A49486000F03FF808494968C1F3F6
:102150000311074A515CC8400649086006480068F8
:10216000FFF77EFD002048E70020024000100240FB
:102170000A730008D8180020D01800200148006811
:1021800070470000D818002000B5FFF7F7FF04499A
:102190004968C1F30221034A515CC84000BD0000F8
:1021A000001002401A73000800B5FFF7E7FF04496A
:1021B0004968C1F3C221034A515CC84000BD000018
:1021C000001002401A73000870B50021002200249C
:1021D00000230020134D696801F00C05F5B1042DB2
:1021E00002D0082D19D101E00F4819E00F4DC1F3BD
:1021F0008346AB5D01F4803555B10A4D6D68C5F37A
:1022000040450B4E725D084D5D43B5FBF2F402E0B4
:10221000084D03FB05F4204602E000BF024800BF62
:1022200000BF70BD0010024000127A00E672000884
:10223000F672000800093D00F8B504460CB901200B
:10224000F8BD207800F00100002878D0F8484068F8
:1022500000F00C0004280CD0F548406800F00C0099
:10226000082811D1F248406800F48030B0F5803F72
:102270000AD1EF48006800F4003000285FD06068A1
:1022800000285CD10120DBE700BF6068B0F5803F2B
:1022900006D1E748006840F48030E549086028E04E
:1022A000606858B9E248006820F48030E04908606E
:1022B0000846006820F4802008601AE06068B0F5E5
:1022C000A02F0BD1DA48006840F48020D84908607C
:1022D0000846006840F4803008600AE0D44800688E
:1022E00020F48030D24908600846006820F480203D
:1022F000086000BF606888B1FFF7B8FA054606E0DD
:10230000FFF7B4FA401B642801D9032098E7C848B6
:10231000006800F400300028F2D010E0FFF7A6FAC1
:10232000054606E0FFF7A2FA401B642801D9032006
:1023300086E7BF48006800F400300028F2D120781A
:1023400000F00200022857D1B948406800F00C00A4
:1023500050B1B748406800F00C00082818D1B448C4
:10236000406800F4803098B9B148006800F002007D
:1023700020B12069012801D0012061E7AC48006844
:1023800020F0F800616940EAC100A949086033E023
:102390002069E8B10120A7490860FFF767FA054600
:1023A00006E0FFF763FA401B022801D9032047E744
:1023B0009F48006800F002000028F2D09C480068A6
:1023C00020F0F800616940EAC1009949086013E013
:1023D000002098490860FFF749FA054606E0FFF734
:1023E00045FA401B022801D9032029E790480068DC
:1023F00000F002000028F2D1207800F00800082840
:102400002DD1A069B8B101208B490860FFF72EFAE1
:10241000054606E0FFF72AFA401B022801D90320EF
:102420000EE78348406A00F002000028F2D0012045
:1024300001F09AFA13E000207F490860FFF716FACE
:10244000054606E0FFF712FA401B022801D90320D7
:10245000F6E67748406A00F002000028F2D12078C2
:1024600000F00400042873D100277148C06900F00F
:10247000805070B900BF6E48C06940F080506C4910
:10248000C8610846C06900F08050009000BF00BFDE
:1024900001276A48006800F48070B0B96748006896
:1024A00040F4807065490860FFF7E0F9054606E0F2
:1024B000FFF7DCF9401B642801D90320C0E65F4820
:1024C000006800F480700028F2D000BFE0680128A6
:1024D00006D15748006A40F001005549086227E0DC
:1024E000E06858B95248006A20F00100504908627B
:1024F0000846006A20F00400086219E0E068052838
:102500000BD14B48006A40F0040049490862084674
:10251000006A40F0010008620AE04548006A20F0C5
:102520000100434908620846006A20F0040008627E
:1025300000BFE068A0B1FFF799F9054609E0FFF791
:1025400095F9401B41F28831884202D9032077E691
:1025500022E03748006A00F002000028EFD012E0C5
:10256000FFF784F9054608E0FFF780F9401B41F2C8
:102570008831884201D9032062E62D48006A00F0C4
:1025800002000028F0D1012F05D12948C06920F0B0
:1025900080502749C86100BFE069C8B3244840683B
:1025A00000F00C00082860D0E069022848D1002023
:1025B00020490866FFF75AF9054606E0FFF756F985
:1025C000401B022801D903203AE61948006800F0B0
:1025D00000700028F2D1206AB0F5803F07D114487E
:1025E000406820F40030A168084311494860D4E9EC
:1025F000080108430E49496821F4741108430C4945
:10260000486001200B490866FFF730F9054607E0EE
:102610003DE0FFF72BF9401B022801D903200FE60C
:102620000348006800F000700028F2D02FE000009E
:10263000001002400000424280044242007000400C
:10264000002014490866FFF711F9054606E0FFF778
:102650000DF9401B022801D90320F1E50E4800685E
:1026600000F000700028F2D111E0E069012800D1EB
:10267000E6E50948466806F48031206A814204D1C3
:1026800006F47011606A814201D00120D8E5002073
:10269000D6E50000000042420010024070B504463A
:1026A0002546681EB0F1807F01D301200FE0681E2F
:1026B0004FF0E02148610F214FF0FF3003F014F993
:1026C00000204FF0E021886107200861002070BDE4
:1026D00030B502460B4600BF92F83C00012801D1FC
:1026E000022030BD012082F83C0000BF022082F8A9
:1026F0003D00106844681068816824F07004186810
:10270000044310684460104D1068A8420BD0106854
:10271000B0F1804F07D00D4D1068A84203D00C4D8A
:102720001068A84205D121F0800158680143106863
:102730008160012082F83D0000BF002082F83C004B
:1027400000BF00BFCDE70000002C014000040040A6
:102750000008004010B504460CB9012010BD94F8E3
:102760003D0028B9002084F83C00204600F026F8FF
:10277000022084F83D00211D206801F011FB01209A
:1027800084F8460000BF84F83E0001213F20015537
:10279000402001554120015500BF00BF012084F8B1
:1027A000420043200155442001554520015500BFFA
:1027B000012084F83D000020D0E7000008B5016842
:1027C000B1F1804F0DD100BF0649C96941F0010147
:1027D000044AD1611146C96901F00101009100BFAD
:1027E00000BF08BD00100240014691F83D000128DD
:1027F00001D001207047022081F83D00124B08688B
:1028000098420BD00868B0F1804F07D00F4B086892
:10281000984203D00E4B086898420CD10868806833
:1028200000F00702062A0CD00868006840F001009A
:102830000B68186005E00868006840F001000B684C
:1028400018600020D6E70000002C01400004004082
:1028500000080040014600BF0868006A41F21112FA
:10286000104050B90868006A9210104028B90868F2
:10287000006820F001000A68106000BF012081F8A4
:102880003D00002070472DE9F04104460D46002729
:1028900000BF94F83C00012802D10220BDE8F0817D
:1028A000012084F83C0000BF022084F83D0020682D
:1028B000866826F0770626F47F46206886602868BA
:1028C000502833D00CDC202850D004DC00284BD01A
:1028D000102851D149E0302849D040284CD139E066
:1028E00060282DD0702807D0B0F5805F03D0B0F5F8
:1028F000005F41D10DE041E0D5E902136A6820682C
:1029000001F090FA2068866846F0770620688660B5
:1029100034E0D5E902136A68206801F083FA206880
:10292000806840F480402168886027E0EA68696830
:10293000206801F08BFA5021206801F07EFA1DE03A
:10294000EA686968206801F094FA6021206801F063
:1029500074FA13E0EA686968206801F077FA4021A8
:10296000206801F06AFA09E000BF00BF00BF2968D3
:10297000206801F062FA01E0012700BF00BF0120DA
:1029800084F83D0000BF002084F83C0000BF3846BA
:1029900084E7704770B50446002520684069C0F39D
:1029A000C01594F84100212817D1B5B100BF00BF70
:1029B0002168143151E8001F21F080002168143192
:1029C00041E80002002AF3D100BFA06B10B1A06B58
:1029D000FEF7BCFB204601F057FB20684069C0F3BE
:1029E000801594F84200222817D1B5B100BF00BF6E
:1029F0002168143151E8001F21F040002168143192
:102A000041E80002002AF3D100BFE06B10B1E06B97
:102A1000FEF79CFB204601F0F1FA002070BD7047E4
:102A20002DE9F84F0446206805682068C6682068CC
:102A300047694FF00009CA4605F00F09B9F1000FC8
:102A40000AD105F0200038B106F0200020B1204660
:102A500001F02DFBBDE8F88FB9F1000F7BD007F036
:102A6000010018B906F49070002874D005F0010038
:102A700030B106F4807018B1606C40F00100606401
:102A800005F0040030B107F0010018B1606C40F0AF
:102A90000200606405F0020030B107F0010018B1D7
:102AA000606C40F00400606405F0080048B106F076
:102AB000200010B907F0010018B1606C40F0080068
:102AC0006064606C002845D005F0200028B106F055
:102AD000200010B1204601F0EAFA20684069C0F3F6
:102AE000801A606C00F0080010B9BAF1000F2CD009
:102AF000204601F083FA2068406900F0400000B3EE
:102B000000BF00BF2168143151E8001F21F04000D0
:102B10002168143141E80002002AF3D100BFE06BC4
:102B200050B17748E16B4863E06BFEF73BFB88B13F
:102B3000E06B416B88470DE02046FFF770FF09E02E
:102B400009E02046FFF76BFF04E02046FFF767FF30
:102B5000002060647EE7206B012877D105F010002B
:102B6000002873D006F010000028FAD000BF002023
:102B7000009020680068009020684068009000BFC6
:102B800000BF2068406900F0400000285FD0E06B83
:102B9000006840681FFA80F8B8F1000F55D0A08D8A
:102BA000404552DDA4F82E80E06B8069202843D098
:102BB00000BF00BF21680C3151E8001F21F4807074
:102BC00021680C3141E80002002AF3D100BF00BFA8
:102BD00000BF2168143151E8001F21F00100216875
:102BE000143141E80002002AF3D100BF00BF00BF4A
:102BF0002168143151E8001F21F040002168143190
:102C000041E80002002AF3D100BF202084F84200EE
:102C10000020206300BF00BF21680C3151E8001F75
:102C200021F0100021680C3141E80002002AF3D1A4
:102C300000BFE06BFEF78AFA02206063A08DE28D90
:102C4000801A81B22046FFF7A4FE03E742E0A08D80
:102C5000E18D401A1FFA80F8E08DD0B3B8F1000F73
:102C600037D000BF00BF21680C3151E8001F21F4AC
:102C7000907021680C3141E80002002AF3D100BFB6
:102C800000BF00BF2168143151E8001F21F001008E
:102C90002168143141E80002002AF3D100BF20204E
:102CA00084F842000020206300BF00BF21680C317F
:102CB00051E8001F21F0100021680C3141E80002AA
:102CC000002AF3D100BF0220606341462046FFF78F
:102CD00060FEBFE605F0800030B106F0800018B15C
:102CE000204601F045FBB5E605F0400030B106F0A6
:102CF000400018B1204601F0B7F9ABE600BFA9E6E5
:102D0000C13E000810B504460CB9012010BDA069F1
:102D100000B100E000BF94F8410028B9002084F819
:102D20004000204600F02AF8242084F84100206862
:102D3000C06820F400502168C860204601F036FACF
:102D40002068006920F4904021680861206840698B
:102D500020F02A00216848612068C06840F40050D3
:102D60002168C86000206064202084F8410084F855
:102D700042000020606300BFC8E7000010B586B0C5
:102D80000446002002900390049005903849206882
:102D900088426BD100BF3748806940F48040354994
:102DA00088610846806900F48040019000BF00BF40
:102DB00000BF0846806940F00400886108468069C9
:102DC00000F00400019000BF00BF481502900220EF
:102DD00003900320059002A92748FEF79FFB4FF4BC
:102DE0008060029000200390049002A92248FEF720
:102DF00095FB2248224908601020486000212048A5
:102E000081608021C1600021016141618161C161F6
:102E1000FEF7EEFA08B1FDF7ABFE00BF1848A0635D
:102E2000446200BF1548143016490860002048600D
:102E30000021144881608021C1600021016141614D
:102E4000202181610021C161FEF7D2FA08B1FDF7AE
:102E50008FFE00BF0B48E063446200BF00221146B2
:102E60002520FEF75DFF2520FEF74AFF06B010BDC6
:102E700000380140001002400008014044000240B8
:102E8000401A0020841A002070B504460D461646EC
:102E900094F8420020280BD105B10EB9012070BD75
:102EA0000020206332462946204601F0FDF9F6E76E
:102EB0000220F4E7704770472DE9F84F04460E46AC
:102EC000174699464FF0000A94F84100202850D147
:102ED00006B117B90120BDE8F88F002060642120F9
:102EE00084F84100FEF7C2FC8246A784E784A0680C
:102EF000B0F5805F04D1206910B90025B04602E02A
:102F000035464FF000081EE053460022802120463F
:102F1000CDF8009001F05CFA20B1202084F8410047
:102F20000320D8E745B9B8F80000C0F308002168CD
:102F3000486008F1020803E02878216848606D1CA9
:102F4000E08C401EE084E08C0028DDD15346002256
:102F500040212046CDF8009001F03AFA20B120201F
:102F600084F841000320B6E7202084F841000020C7
:102F7000B1E70220AFE7704700BFFEE701460868EF
:102F80004069C0F38020B0B16FF480600A6850617E
:102F900000200863202081F83D00002081F83E00D9
:102FA000086C40F00400086400BF002081F83C0079
:102FB00000BF012070470020FCE700002DE9F84326
:102FC0000446884615469946DDE90867206800688A
:102FD00040F4807021680860334600224FF00111F0
:102FE0002046009700F08DF860B12068006800F47A
:102FF0008070B0F5807F02D14FF400702064032010
:10300000BDE8F88308F0FE00216808613B463246BF
:103010002149204600F0D4F808B10120F0E700BFB4
:10302000002000902068406900902068806900902E
:1030300000BF00BF3A463146204600F03EF950B18D
:10304000206C042805D12068006840F400702168D5
:1030500008600120D4E7B9F1010F03D1E8B221687B
:10306000086117E0C5F30720216808613A46314638
:10307000204600F022F950B1206C042805D12068C8
:10308000006840F40070216808600120B8E7E8B2E9
:10309000216808610020B3E70200010070B5044612
:1030A0000D46164625E02046FFF768FF08B10120CF
:1030B00070BD681CE8B1FEF7D9FB801BA84200D8A0
:1030C000BDB920684069C0F3800090B9002020633A
:1030D000202084F83D00002084F83E00206C40F061
:1030E0002000206400BF002084F83C0000BF0120C5
:1030F000DEE720684069C0F380000028D3D00020BC
:10310000D6E72DE9F04104460D4617461E46DDF888
:10311000188038E0701CA8B3FEF7A8FBA0EB0800ED
:10312000B04200D876BBC5F3074001280AD1206819
:103130004069A9B20840A9B2884201D101200BE040
:10314000002009E020688069A9B20840A9B288423D
:1031500001D1012000E00020B84214D100202063FA
:10316000202084F83D00002084F83E00206C40F0D0
:103170002000206400BF002084F83C0000BF012034
:10318000BDE8F081FFE7C5F3074001280AD12068B8
:103190004069A9B20840A9B2884201D101200BE0E0
:1031A000002009E020688069A9B20840A9B28842DD
:1031B00001D1012000E00020B842ABD00020DFE7C1
:1031C0002DE9F04104460D4616461F4658E020689A
:1031D0004069C0F38020E8B12068006840F40070C6
:1031E000216808606FF480602168486100202063D6
:1031F000202084F83D00002084F83E00206C40F040
:103200000400206400BF002084F83C0000BF0120BF
:10321000BDE8F081701C90B3FEF728FBC01BB042E4
:1032200000D866BBC5F3074001280AD12068406971
:10323000A9B20840A9B2884201D101200BE00020C8
:1032400009E020688069A9B20840A9B2884201D18A
:10325000012000E0002090B900202063202084F8A5
:103260003D00002084F83E00206C40F020002064E7
:1032700000BF002084F83C0000BF0120C8E7FFE742
:10328000C5F3074001280AD120684069A9B2084067
:10329000A9B2884201D101200BE0002009E020689A
:1032A0008069A9B20840A9B2884201D1012000E09A
:1032B000002000288BD00020AAE770B504460D46F8
:1032C000164625E02046FFF759FE08B1012070BDE3
:1032D000681CE8B1FEF7CAFA801BA84200D8BDB945
:1032E00020684069C0F3C01090B9002020632020FE
:1032F00084F83D00002084F83E00206C40F020005F
:10330000206400BF002084F83C0000BF0120DEE7FD
:1033100020684069C0F3C0100028D3D00020D6E751
:103320000EB50020009001900290134813490860E8
:1033300000211248816001210173002101754FF4C1
:103340006021C16100200D49486001210B480161E5
:10335000FDF7CAFC08B1FDF70BFC0020009001202E
:1033600001900020029069460448FDF705FC08B171
:10337000FDF7FEFB0EBD0000002401402C190020CB
:1033800008B500BF0E48406940F001000C49486193
:103390000846406900F00100009000BF00BF002215
:1033A00011460E20FEF7BCFC0E20FEF7A9FC002201
:1033B00011460F20FEF7B4FC0F20FEF7A1FC08BD5C
:1033C0000010024000B585B00020019002900390EB
:1033D000049000BF3648806940F01000344988618D
:1033E0000846806900F01000009000BF00BF00BFD9
:1033F0000846806940F0200088610846806900F036
:103400002000009000BF00BF00BF0846806940F068
:10341000040088610846806900F00400009000BF45
:1034200000BF00BF0846806940F008008861084678
:10343000806900F00800009000BF00BF00224FF438
:1034400000511C48FEF70CFA0022F0211A48FEF742
:1034500007FA002240F603411848FEF701FA4FF43C
:10346000005001900120029000200390022004905F
:1034700001A91048FEF752F8F020019001200290B7
:10348000002003900220049001A90B48FEF746F8A3
:1034900040F603400190012002900020039002209A
:1034A000049001A90548FEF739F805B000BD0000F9
:1034B000001002400010014000080140000C0140D3
:1034C00010B50B480B4908600B48486000210948BB
:1034D0008160C1604FF480410161002141618161DF
:1034E000C1610162FEF7C8F908B1FDF741FB10BDEB
:1034F000005400405C190020A086010000B587B090
:1035000000200390049005900690019002904FF0E7
:1035100080401449086047204860002111488160BC
:103520004FF6FF71C160002101618161FFF712F95F
:1035300008B1FDF71DFB4FF48050039003A9094823
:10354000FFF7A1F908B1FDF713FB002001900290ED
:1035500001A90448FFF7BCF808B1FDF709FB07B063
:1035600000BD0000B019002010B50B480B490860E1
:103570004FF416504860002108488160C160016125
:103580000C21416100218161C161FFF7BBFB08B1E2
:10359000FDF7EEFA10BD000000380140F8190020D8
:1035A00000BFFEE700BFFEE770B5002415E004F1A0
:1035B000B001C8B200F0AEF9002000F0ABF9102065
:1035C00000F0A8F9002504E0002000F0B7F9681C1D
:1035D000C5B2802DF8DB601CC4B2082CE7DB70BDDF
:1035E0003EB5002400BF0FE04FF48071012208486F
:1035F00020441346CDE9012100900022782105489E
:10360000FEF722FA601CC4B21B2CEDDB3EBD0000AD
:10361000401800205C19002070B504460D4605F1E5
:10362000B001C8B200F076F9102141EA141000F0A0
:1036300071F904F00F0000F06DF970BD2DE9F04153
:1036400080460E461546002731464046FFF7E4FF08
:10365000002409E0114A02EB8511085D00F06EF9C3
:10366000781CC7B2601CC4B2102CF3DB701CC1B252
:103670004046FFF7D1FF00240BE06900491C074AD0
:1036800002EB4111085D00F059F9781CC7B2601CCB
:10369000C4B2102CF1DBBDE8F08100000000002076
:1036A0002DE9F04707460E4690469946002500242E
:1036B000A8F12000C5B27F2F02DD0027B01CC6B2E2
:1036C000B9F1100F22D131463846FFF7A5FF00248B
:1036D00007E004EB0511174A505C00F02FF9601C5D
:1036E000C4B2082CF5DB701CC1B23846FFF794FF5A
:1036F000002408E004EB051108310E4A505C00F08C
:103700001DF9601CC4B2082CF4DB11E031463846C8
:10371000FFF782FF002409E005EB4501064A02EBB2
:103720004101085D00F00AF9601CC4B2062CF3DB0D
:10373000BDE8F087F66C0008CE6A00082DE9FF5F4F
:10374000074691461E460E9D4FF0000A002435E0C4
:10375000301B401EC1B20A2003F002F9B9FBF0F0A1
:103760000A21B0FBF1F201FB1208BAF1000F14D1EB
:10377000701EA04211DDB8F1000F0CD1AB4605EB75
:10378000DB71491001FB0471C8B22B46202201995C
:10379000FFF786FF10E04FF0010AAB4605EBDB7147
:1037A000491001FB0471C8B208F13001CAB22B46BE
:1037B0000199FFF775FF00BF601CC4B2B442C7DBBC
:1037C000BDE8FF9F2DE9F04104460F461546984697
:1037D00000260FE0AA5D434639462046FFF760FF0A
:1037E00004F10800C4B2782C02DD0024B81CC7B272
:1037F000701CC6B2A85D0028ECD1BDE8F0810000C5
:103800002DE9F04180460E461546002731464046D8
:10381000FFF702FF002409E0114A02EB8511085D61
:1038200000F08CF8781CC7B2601CC4B2102CF3DB1B
:10383000701CC1B24046FFF7EFFE00240BE06900A8
:10384000491C074A02EB4111085D00F077F8781C2B
:10385000C7B2601CC4B2102CF1DBBDE8F0810000DF
:10386000000A00202DE9F8430646884614461F4604
:10387000089D002C0EDA2B462D2241463046FFF7DC
:103880000FFF06F10801C8B23B466242414600956F
:10389000FFF754FF0CB1002C07DD781CC3B22246A1
:1038A000414630460095FFF749FFBDE8F883000028
:1038B0002DE9F04180460E46154600273146404628
:1038C000FFF7AAFE002409E0114A02EB8511085D0A
:1038D00000F034F8781CC7B2601CC4B2102CF3DBC3
:1038E000701CC1B24046FFF797FE00240BE0690050
:1038F000491C074A02EB4111085D00F01FF8781CD3
:10390000C7B2601CC4B2102CF1DBBDE8F08100002E
:10391000C016002001B584B04FF48070012104AAC4
:103920000B46CDE900210290002278210248FEF7E3
:103930008BF805B000BD00005C19002001B584B013
:103940004FF48070012104AA0B46CDE900210290BA
:10395000402278210248FEF777F805B000BD00004C
:103960005C1900207047000008B508490968C908BB
:103970004FF47A72B1FBF2F14143009100BF00BFF6
:1039800000994A1E00920029F9D108BDD8180020DC
:103990007047000010B50122D1020A48FDF760FF10
:1039A00000224FF480610748FDF75AFF00220221F0
:1039B0000448FDF755FF002201210248FDF750FFA2
:1039C00010BD0000000C014010B501228021094803
:1039D000FDF746FF002240210648FDF741FF002287
:1039E00020210448FDF73CFF002210210148FDF78B
:1039F00037FF10BD0008014010B50122D10209486F
:103A0000FDF72EFF012291020648FDF729FF002253
:103A100002210448FDF724FF002201210148FDF79F
:103A20001FFF10BD000C014010B501228021094884
:103A3000FDF716FF012240210648FDF711FF002285
:103A400020210448FDF70CFF002210210148FDF75A
:103A500007FF10BD0008014010B500224FF40061BF
:103A60000948FDF7FDFE012291020748FDF7F8FE27
:103A7000002202210448FDF7F3FE00220121024842
:103A8000FDF7EEFE10BD0000000C014010B5002255
:103A900080210948FDF7E4FE012240210648FDF798
:103AA000DFFE002220210448FDF7DAFE002210216B
:103AB0000148FDF7D5FE10BD0008014010B50022F9
:103AC0004FF400610948FDF7CBFE0122910207483F
:103AD000FDF7C6FE012202210448FDF7C1FE0022C7
:103AE00001210248FDF7BCFE10BD0000000C0140A2
:103AF00010B5002280210948FDF7B2FE01224021C5
:103B00000648FDF7ADFE012220210448FDF7A8FE7E
:103B1000002210210148FDF7A3FE10BD000801405E
:103B200010B500224FF400610948FDF799FE00220C
:103B30004FF480610648FDF793FE012202210448FC
:103B4000FDF78EFE002201210148FDF789FE10BD20
:103B5000000C014010B5002280210948FDF780FECD
:103B6000002240210648FDF77BFE01222021044867
:103B7000FDF776FE002210210148FDF771FE10BD11
:103B80000008014010B500224FF400610948FDF71C
:103B900067FE00224FF480610648FDF761FE0122B6
:103BA00002210448FDF75CFE012211460148FDF7A1
:103BB00057FE10BD000C014010B5002280210948BD
:103BC000FDF74EFE002240210648FDF749FE012286
:103BD00020210448FDF744FE012210210148FDF791
:103BE0003FFE10BD0008014010B50122D1020A4875
:103BF000FDF736FE00224FF480610748FDF730FEE6
:103C0000002202210448FDF72BFE01221146024842
:103C1000FDF726FE10BD0000000C014010B501228A
:103C200080210948FDF71CFE002240210648FDF7CF
:103C300017FE002220210448FDF712FE0122102168
:103C40000148FDF70DFE10BD0008014010B500222F
:103C50004FF400610948FDF703FE00224FF4806134
:103C60000648FDF7FDFD002202210448FDF7F8FD9E
:103C7000012211460148FDF7F3FD10BD000C014083
:103C800010B5002280210948FDF7EAFD00224021FD
:103C90000648FDF7E5FD002220210448FDF7E0FD80
:103CA000012210210148FDF7DBFD10BD0008014095
:103CB00010B5002280210948FDF7D2FD00224021E5
:103CC0000648FDF7CDFD002220210448FDF7C8FD80
:103CD000002210210148FDF7C3FD10BD000C01407A
:103CE00010B5002280210948FDF7BAFD00224021CD
:103CF0000648FDF7B5FD002220210448FDF7B0FD80
:103D0000002210210148FDF7ABFD10BD0008014065
:103D100010B5FDF785FF10BD00B593B0282109A8A7
:103D2000FCF717FA142104A8FCF713FA00200090FE
:103D30000190029003900120099000040A90002055
:103D40000B9001200D9002201090C10311914FF4AF
:103D5000E011129109A8FEF76FFA08B1FCF708FF0D
:103D60000F20049002200590002006904FF4806000
:103D7000079000200890022104A8FEF739F908B145
:103D8000FCF7F6FE02200090800302906846FEF7E2
:103D900097F808B1FCF7ECFE13B000BD70470000C7
:103DA00010B502681C4B984208D0B0F1804F05D086
:103DB0001A4B984202D01A4B984203D122F070025B
:103DC0004B681A43144B984208D0B0F1804F05D08D
:103DD000124B984202D0124B984203D122F4407207
:103DE000CB681A4322F080034C6943EA0402026064
:103DF0008B68C3620B688362074B984201D10B69E1
:103E0000036301234361036903F001031BB10369E9
:103E100023F00103036110BD002C014000040040A9
:103E20000008004030B50C46816821F47F4142EA29
:103E3000032525432943816030BD0A46816821F06E
:103E4000700142F0070319438160704730B50B469B
:103E50001446026A056A25F001050562816921F0B0
:103E6000F00141EA041122F00A021A438161026260
:103E700030BD30B50B461446026A056A25F01005C0
:103E80000562816921F4704141EA043122F0A00207
:103E900042EA03128161026230BD000010B5FCF7F6
:103EA00079FD50B105484079401C044948710846E5
:103EB0004079802801DB0020487110BD5B1800208C
:103EC00070B505466C6A0020E085E0842046FEF768
:103ED000A6FD70BD70B506460025746A206840696D
:103EE000C0F3C01594F84100212805D125B1002068
:103EF000E084204600F0C8F820684069C0F38015CF
:103F000094F84200222805D125B10020E085204602
:103F100000F074F8606C40F0100060642046FEF71A
:103F20007EFD70BD70B505466C6A2868006800F0BB
:103F30002000002842D1E08500BF00BF21680C317D
:103F400051E8001F21F4807021680C3141E8000223
:103F5000002AF3D100BF00BF00BF2168143151E82F
:103F6000001F21F001002168143141E80002002AFD
:103F7000F3D100BF00BF00BF2168143151E8001F1A
:103F800021F040002168143141E80002002AF3D1F9
:103F900000BF202084F84200206B01280ED100BF12
:103FA00000BF21680C3151E8001F21F0100021688A
:103FB0000C3141E80002002AF3D100BF0020606309
:103FC000206B012804D1A18D2046FEF7E2FC02E01F
:103FD0002046FEF76FFF70BD70B505466C6A012084
:103FE0006063206B012805D1A08D41082046FEF7B3
:103FF000D0FC02E02046FEF75EFF70BD00BF00BFB0
:1040000002680C3252E8002F22F4907102680C32E0
:1040100042E80013002BF3D100BF00BF00BF0268CD
:10402000143252E8002F22F001010268143242E8F3
:104030000013002BF3D100BF016B01290ED100BF8B
:1040400000BF02680C3252E8002F22F01001026813
:104050000C3242E80013002BF3D100BF202180F87E
:10406000421000210163704710B504462068C06803
:1040700020F040002168C860202084F841002046DC
:10408000FEF779FF002010BD00BF00BF02680C32B0
:1040900052E8002F22F0C00102680C3242E80013FF
:1040A000002BF3D100BF202180F841107047F8B5F4
:1040B000044694F84200222875D1A068B0F5805FCC
:1040C0000CD1206950B90025A66A20684068C0F369
:1040D00008003080A06A801CA06215E0A56A002656
:1040E000A068B0F5805F03D0A06828B9206918B92E
:1040F00020684068287004E02068406800F07F0075
:104100002870A06A401CA062E08D401E80B2E0854D
:10411000002846D12068C06820F020002168C860CF
:104120002068C06820F480702168C86020684069F9
:1041300020F0010021684861202084F8420000201E
:104140006063206B012826D10020206300BF00BFE0
:1041500021680C3151E8001F21F0100021680C315A
:1041600041E80002002AF3D100BF2068006800F097
:10417000100010280AD100BF0020009020680068BD
:10418000009020684068009000BF00BFA18D2046CD
:10419000FEF7FFFB02E02046FEF78CFE0020F8BD94
:1041A00001E00020FBE70220F9E7000070B50446BB
:1041B0002168096921F44051E268114322681161C4
:1041C0002269A1681143626941EA02052168C96850
:1041D00041F20C62914329432268D1602168496908
:1041E00021F44071A2691143226851612D4A21686E
:1041F000914202D1FDF7D8FF01E0FDF7C5FF00EBCA
:10420000C00101EB001162689200B1FBF2F100EB1A
:10421000C00202EB001263689B00B2FBF3F264235E
:10422000B2FBF3F202EBC20303EB0212A1EB820139
:10423000322202EB01116422B1FBF2F101F0F00134
:1042400000EBC00202EB001263689B00B2FBF3F2CA
:104250006423B2FBF3F201EB021200EBC00101EBAD
:10426000001163689B00B1FBF3F100EBC00303EBAB
:1042700000136668B600B3FBF6F36426B3FBF6F3EF
:1042800003EBC30606EB0313A1EB8301322303EB1D
:1042900001116423B1FBF3F101F00F011144226815
:1042A000916070BD0038014077B581B00446154675
:1042B0000298A062A58500206064222084F8420054
:1042C0002848E16B88622848E16BC8622748E16BA7
:1042D00008630020E16B486302AE32682368191D51
:1042E0002B46E06BFDF7B8F800BF00200090206877
:1042F0000068009020684068009000BF00BF2069FF
:1043000070B100BF00BF21680C3151E8001F41F4BB
:10431000807021680C3141E80002002AF3D100BF0F
:1043200000BF00BF2168143151E8001F41F00100B7
:104330002168143141E80002002AF3D100BF00BF18
:1043400000BF2168143151E8001F41F0400021688E
:10435000143141E80002002AF3D100BF002004B06C
:1043600070BD0000253F0008D93F0008D53E000879
:10437000014691F84100212828D18868B0F5805F76
:104380000BD1086948B90A6A1088C0F308000B68A5
:104390005860086A801C086205E00B6A581C0862B5
:1043A00018780B685860C88C401E80B2C88458B911
:1043B0000868C06820F080000B68D8600868C06892
:1043C00040F040000B68D860002070470220FCE7F6
:1043D0002DE9F84304460D4617469846089E31E0FD
:1043E000701C70B3FDF742FAA0EB0800B04200D891
:1043F00016B90320BDE8F8832068C06800F0040007
:10440000F8B1802D1ED0402D1CD020680068C0F36C
:10441000C000B0B100BF002000902068006800908C
:1044200020684068009000BF00BF2046FFF7E6FD0F
:104430000820606400BF002084F8400000BF012015
:10444000D8E7FFE7206800682840A84201D1012092
:1044500000E00020B842C3D00020CBE738B51648B2
:10446000FEF7DEFA144800681449884223D1124846
:1044700000680068C0F30010E8B100BF00200090A1
:104480000D480068006800900B4800684068009084
:1044900000BF00BF0848FEF77DFA0948006844687D
:1044A000C4F1FF000749087000200870FF22064988
:1044B0000148FEF7E9FC38BDF8190020003801403A
:1044C000841A0020C8180020E418002000BFFEE76E
:1044D00007B582B00498142877D00EDC142881F038
:1044E000EE80DFE800F03A73ADF5F3F2F1F0EFEEB5
:1044F000EDECEBEAE9E8E7E6E5E41E287ED00EDC29
:10450000A0F115000928EAD2DFE810F0C404FB048A
:1045100032056905A005D7050E0645067C06232849
:1045200000F0BA870CDC1F2869D0202800F00F8724
:10453000212800F04387222841F0C18000F075BF98
:10454000242800F0E087252801F01480262801F0B7
:1045500048806328F0D101F07BB80398C0B2019085
:104560000298C0B2002200900199FFF749F9039820
:10457000C0B2019002981030C0B20122009001999F
:10458000FFF73EF90398C0B2019002982030C0B204
:10459000042200900199FFF733F90398C0B201900B
:1045A00002983030C0B2322200900199FFF728F90A
:1045B0000398C0B2019002984030C0B232220090FD
:1045C0000199FFF71DF901F0B1B8F1E30398C0B20A
:1045D00001900298C0B2022200900199FFF710F9F1
:1045E0000398C0B2019002981030C0B2032200902C
:1045F0000199FFF705F90398C0B201E0FEE3FEE37D
:10460000019002982030C0B2042200900199FFF777
:10461000F7F80398C0B2019002983030C0B232224D
:1046200000900199FFF7ECF80398C0B2019002984E
:104630004030C0B2322200900199FFF7E1F8C2E7A2
:104640000398C0B201900298C0B200220090019974
:10465000FFF7D6F80398C0B2019002981030C0B2AC
:10466000012200900199FFF7CBF80398C0B20190A6
:1046700002982030C0B2042200900199FFF7C0F8E0
:104680000398C0B2019002983030C0B2322200903C
:104690000199FFF7B5F80398C0B201900298403035
:1046A000C0B2322200900199FFF7AAF88BE780E3AD
:1046B00047E30FE3D7E29FE267E22FE2F7E1BFE1D2
:1046C00087E14FE117E1DFE0A7E06FE037E0FFE7C8
:1046D0000398C0B201900298C0B2022200900199E2
:1046E000FFF78EF80398C0B2019002981030C0B264
:1046F000032200900199FFF783F80398C0B201905C
:1047000002982030C0B2042200900199FFF778F897
:104710000398C0B2019002983030C0B232220090AB
:104720000199FFF76DF80398C0B2019002984030EC
:10473000C0B2322200900199FFF762F843E7039874
:10474000C0B201900298C0B2072200900199FFF711
:1047500057F80398C0B2019002981030C0B20822F6
:1047600000900199FFF74CF80398C0B201900298AD
:104770002030C0B2322200900199FFF741F803982F
:10478000C0B2019002983030C0B23222009001993C
:10479000FFF736F80398C0B2019002984030C0B2DB
:1047A000322200900199FFF72BF80CE70398C0B272
:1047B00001900298C0B2042200900199FFF720F8FE
:1047C0000398C0B2019002981030C0B20522009048
:1047D0000199FFF715F80398C0B2019002982030B4
:1047E000C0B2062200900199FFF70AF80398C0B200
:1047F000019002983030C0B2072200900199FEF774
:10480000FFFF0398C0B2019002984030C0B2082266
:1048100000900199FEF7F4FFD5E60398C0B201902D
:104820000298C0B2042200900199FEF7E9FF0398B4
:10483000C0B2019002981030C0B2052200900199D8
:10484000FEF7DEFF0398C0B2019002982030C0B29C
:10485000062200900199FEF7D3FF0398C0B20190A1
:1048600002983030C0B2072200900199FEF7C8FFCD
:104870000398C0B2019002984030C0B20822009064
:104880000199FEF7BDFF9EE60398C0B20190029821
:10489000C0B2092200900199FEF7B2FF0398C0B29E
:1048A000019002981030C0B20A2200900199FEF7E0
:1048B000A7FF0398C0B2019002982030C0B207222F
:1048C00000900199FEF79CFF0398C0B201900298F6
:1048D0003030C0B2082200900199FEF791FF039892
:1048E000C0B2019002984030C0B2322200900199CB
:1048F000FEF786FF67E60398C0B201900298C0B247
:10490000092200900199FEF77BFF0398C0B2019045
:1049100002981030C0B20A2200900199FEF770FF91
:104920000398C0B2019002982030C0B207220090D4
:104930000199FEF765FF0398C0B2019002983030EC
:10494000C0B2082200900199FEF75AFF0398C0B246
:10495000019002984030C0B2322200900199FEF7D7
:104960004FFF30E60398C0B201900298C0B20B220C
:1049700000900199FEF744FF0398C0B2019002989D
:104980001030C0B2322200900199FEF739FF03982F
:10499000C0B2019002982030C0B23222009001993A
:1049A000FEF72EFF0398C0B2019002983030C0B2DB
:1049B000322200900199FEF723FF0398C0B20190C4
:1049C00002984030C0B2322200900199FEF718FFE1
:1049D000F9E50398C0B201900298C0B20C22009091
:1049E0000199FEF70DFF0398C0B2019002981030B4
:1049F000C0B20D2200900199FEF702FF0398C0B2E9
:104A0000019002982030C0B2322200900199FEF746
:104A1000F7FE0398C0B2019002983030C0B2322243
:104A200000900199FEF7ECFE0398C0B20190029845
:104A30004030C0B2322200900199FEF7E1FEC2E59B
:104A40000398C0B201900298C0B20E220090019962
:104A5000FEF7D6FE0398C0B2019002981030C0B2A3
:104A60000F2200900199FEF7CBFE0398C0B201908F
:104A700002982030C0B2102200900199FEF7C0FECB
:104A80000398C0B2019002983030C0B23222009038
:104A90000199FEF7B5FE0398C0B20190029840302C
:104AA000C0B2322200900199FEF7AAFE8BE503986E
:104AB000C0B201900298C0B20E2200900199FEF798
:104AC0009FFE0398C0B2019002981030C0B20F222E
:104AD00000900199FEF794FE0398C0B201900298ED
:104AE0002030C0B2102200900199FEF789FE039891
:104AF000C0B2019002983030C0B2112200900199EA
:104B0000FEF77EFE0398C0B2019002984030C0B21A
:104B1000122200900199FEF773FE54E50398C0B28B
:104B200001900298C0B2132200900199FEF768FE2E
:104B30000398C0B2019002981030C0B214220090C5
:104B40000199FEF75DFE0398C0B2019002982030F3
:104B5000C0B2322200900199FEF752FE0398C0B213
:104B6000019002983030C0B2322200900199FEF7D5
:104B700047FE0398C0B2019002984030C0B2322282
:104B800000900199FEF73CFE1DE50398C0B201902C
:104B90000298C0B2152200900199FEF731FE0398E9
:104BA000C0B2019002981030C0B214220090019956
:104BB000FEF726FE0398C0B2019002982030C0B2E2
:104BC000322200900199FEF71BFE0398C0B20190BB
:104BD00002983030C0B2322200900199FEF710FEE8
:104BE0000398C0B2019002984030C0B232220090C7
:104BF0000199FEF705FEE6E40398C0B20190029821
:104C0000C0B2162200900199FEF7FAFD0398C0B2D7
:104C1000019002981030C0B2142200900199FEF762
:104C2000EFFD0398C0B2019002982030C0B232224A
:104C300000900199FEF7E4FD0398C0B2019002983C
:104C40003030C0B2322200900199FEF7D9FD0398AE
:104C5000C0B2019002984030C0B232220090019957
:104C6000FEF7CEFDAFE40398C0B201900298C0B247
:104C7000172200900199FEF7C3FD0398C0B201907E
:104C800002981030C0B2142200900199FEF7B8FDCE
:104C90000398C0B2019002982030C0B23222009036
:104CA0000199FEF7ADFD0398C0B201900298303033
:104CB000C0B2322200900199FEF7A2FD0398C0B263
:104CC000019002984030C0B2322200900199FEF764
:104CD00097FD78E40398C0B201900298C0B2162202
:104CE00000900199FEF78CFD0398C0B201900298E4
:104CF0001030C0B2172200900199FEF781FD039891
:104D0000C0B2019002982030C0B2142200900199E4
:104D1000FEF776FD0398C0B2019002983030C0B221
:104D2000322200900199FEF76BFD0398C0B201900A
:104D300002984030C0B2322200900199FEF760FD27
:104D400041E40398C0B201900298C0B218220090CA
:104D50000199FEF755FD0398C0B2019002981030FA
:104D6000C0B2162200900199FEF74AFD0398C0B226
:104D7000019002982030C0B2172200900199FEF7EE
:104D80003FFD0398C0B2019002983030C0B21422A7
:104D900000900199FEF734FD0398C0B2019002988B
:104DA0004030C0B2322200900199FEF729FD0AE49A
:104DB00039E00398C0B201900298C0B21922009065
:104DC0000199FEF71DFD0398C0B2019002981030C2
:104DD000C0B2142200900199FEF712FD0398C0B2F0
:104DE000019002982030C0B2322200900199FEF763
:104DF00007FD0398C0B20190029801E039E26FE22A
:104E00003030C0B2322200900199FEF7F9FC0398CD
:104E1000C0B2019002984030C0B232220090019995
:104E2000FEF7EEFC0BE40398C0B201900298C0B20A
:104E3000142200900199FEF7E3FC0398C0B20190A0
:104E400002981030C0B21A2200900199FEF7D8FCE7
:104E50000398C0B2019002982030C0B21B2200908B
:104E60000199FEF7CDFC0398C0B201900298303052
:104E7000C0B2322200900199FEF7C2FC0398C0B282
:104E8000019002984030C0B2322200900199FEF7A2
:104E9000B7FC0BE40398C0B201900298C0B20C2298
:104EA00000900199FEF7ACFC0398C0B20190029803
:104EB0001030C0B21B2200900199FEF7A1FC0398AC
:104EC000C0B2019002982030C0B232220090019905
:104ED000FEF796FC0398C0B2019002983030C0B241
:104EE000322200900199FEF78BFC0398C0B201902A
:104EF00002984030C0B2322200900199FEF780FC47
:104F00001CE40398C0B201900298C0B21322009032
:104F10000199FEF775FC0398C0B201900298103019
:104F2000C0B21B2200900199FEF76AFC0398C0B240
:104F3000019002982030C0B2322200900199FEF711
:104F40005FFC0398C0B2019002983030C0B23222A8
:104F500000900199FEF754FC0398C0B201900298AA
:104F60004030C0B2322200900199FEF749FCDDE3E7
:104F70000398C0B201900298C0B215220090019926
:104F8000FEF73EFC0398C0B2019002981030C0B208
:104F90001B2200900199FEF733FC0398C0B20190E8
:104FA00002982030C0B2322200900199FEF728FC0E
:104FB0000398C0B2019002983030C0B23222009003
:104FC0000199FEF71DFC0398C0B201900298403091
:104FD000C0B2322200900199FEF712FCA6E30398BA
:104FE000C0B201900298C0B2162200900199FEF75B
:104FF00007FC0398C0B2019002981030C0B21B2287
:1050000000900199FEF7FCFB0398C0B20190029852
:105010002030C0B2322200900199FEF7F1FB0398D4
:10502000C0B2019002983030C0B232220090019993
:10503000FEF7E6FB0398C0B2019002984030C0B280
:10504000322200900199FEF7DBFB6FE30398C0B2B8
:1050500001900298C0B2172200900199FEF7D0FB90
:105060000398C0B2019002981030C0B21B22009089
:105070000199FEF7C5FB0398C0B201900298203059
:10508000C0B2322200900199FEF7BAFB0398C0B279
:10509000019002983030C0B2322200900199FEF7A0
:1050A000AFFB0398C0B2019002984030C0B23222E8
:1050B00000900199FEF7A4FB38E30398C0B2019079
:1050C0000298C0B21C2200900199FEF799FB039848
:1050D000C0B2019002981030C0B21D220090019918
:1050E000FEF78EFB0398C0B2019002982030C0B248
:1050F000322200900199FEF783FB0398C0B2019021
:1051000002983030C0B2322200900199FEF778FB4D
:105110000398C0B2019002984030C0B23222009091
:105120000199FEF76DFB01E30398C0B2019002986C
:10513000C0B21E2200900199FEF762FB0398C0B234
:10514000019002981030C0B21D2200900199FEF724
:1051500057FB0398C0B2019002982030C0B23222AF
:1051600000900199FEF74CFB0398C0B201900298A1
:105170003030C0B2322200900199FEF741FB039813
:10518000C0B2019002984030C0B232220090019922
:10519000FEF736FBCAE20398C0B201900298C0B293
:1051A000202200900199FEF72BFB0398C0B20190DA
:1051B00002981030C0B2212200900199FEF720FB26
:1051C0000398C0B2019002982030C0B22222009011
:1051D0000199FEF715FB0398C0B201900298303098
:1051E000C0B2322200900199FEF70AFB0398C0B2C8
:1051F000019002984030C0B2322200900199FEF72F
:10520000FFFA93E20398C0B201900298C0B21F2245
:1052100000900199FEF7F4FA0398C0B20190029849
:105220001030C0B2202200900199FEF7E9FA0398ED
:10523000C0B2019002982030C0B2212200900199A2
:10524000FEF7DEFA0398C0B2019002983030C0B287
:10525000222200900199FEF7D3FA0398C0B2019080
:1052600002984030C0B2322200900199FEF7C8FA8D
:105270005CE20398C0B201900298C0B22322009071
:105280000199FEF7BDFA0398C0B201900298103060
:10529000C0B2322200900199FEF7B2FA0398C0B270
:1052A000019002982030C0B2322200900199FEF79E
:1052B000A7FA0398C0B2019002983030C0B23222EF
:1052C00000900199FEF79CFA0398C0B201900298F1
:1052D0004030C0B2322200900199FEF791FA25E2E7
:1052E0000398C0B201900298C0B2242200900199A4
:1052F000FEF786FA0398C0B2019002981030C0B24F
:10530000322200900199FEF77BFA0398C0B2019017
:1053100002982030C0B2322200900199FEF770FA54
:105320000398C0B2019002983030C0B2322200908F
:105330000199FEF765FA0398C0B2019002984030D7
:10534000C0B2322200900199FEF75AFAEEE10398BA
:10535000C0B201900298C0B2262200900199FEF7D7
:105360004FFA0398C0B2019002981030C0B23222B6
:1053700000900199FEF744FA0398C0B20190029898
:105380002030C0B2322200900199FEF739FA03981A
:10539000C0B2019002983030C0B232220090019920
:1053A000FEF72EFA0398C0B2019002984030C0B2C6
:1053B000322200900199FEF723FAB7E10398C0B2B8
:1053C00001900298C0B2162200900199FEF718FAD7
:1053D0000398C0B2019002981030C0B2262200900B
:1053E0000199FEF70DFA0398C0B20190029820309F
:1053F000C0B2322200900199FEF702FA0398C0B2BF
:10540000019002983030C0B2322200900199FEF72C
:10541000F7F90398C0B2019002984030C0B232222E
:1054200000900199FEF7ECF980E10398C0B2019079
:105430000298C0B2252200900199FEF7E1F9039885
:10544000C0B2019002981030C0B22622009001999B
:10545000FEF7D6F90398C0B2019002982030C0B28E
:10546000322200900199FEF7CBF90398C0B2019067
:1054700002983030C0B2322200900199FEF7C0F994
:105480000398C0B2019002984030C0B2322200901E
:105490000199FEF7B5F949E10398C0B2019002986D
:1054A000C0B2272200900199FEF7AAF90398C0B272
:1054B000019002981030C0B2282200900199FEF7A6
:1054C0009FF90398C0B2019002982030C0B22922FF
:1054D00000900199FEF794F90398C0B201900298E8
:1054E0003030C0B22A2200900199FEF789F9039862
:1054F000C0B2019002984030C0B2322200900199AF
:10550000FEF77EF912E10398C0B201900298C0B292
:105510002B2200900199FEF773F90398C0B2019015
:1055200002981030C0B22C2200900199FEF768F961
:105530000398C0B2019002982030C0B22D22009092
:105540000199FEF75DF90398C0B2019002983030DE
:10555000C0B2322200900199FEF752F90398C0B20E
:10556000019002984030C0B2322200900199FEF7BB
:1055700047F9DBE00398C0B201900298C0B22E2236
:1055800000900199FEF73CF90398C0B2019002988F
:105590001030C0B2322200900199FEF731F9039821
:1055A000C0B2019002982030C0B23222009001991E
:1055B000FEF726F90398C0B2019002983030C0B2CD
:1055C000322200900199FEF71BF90398C0B20190B6
:1055D00002984030C0B2322200900199FEF710F9D3
:1055E000A4E00398C0B201900298C0B22F220090AC
:1055F0000199FEF705F90398C0B2019002981030A6
:10560000C0B2322200900199FEF7FAF80398C0B2B6
:10561000019002982030C0B2322200900199FEF72A
:10562000EFF80398C0B2019002983030C0B2322235
:1056300000900199FEF7E4F80398C0B20190029837
:105640004030C0B2322200900199FEF7D9F86DE0E7
:105650000398C0B201900298C0B230220090019924
:10566000FEF7CEF80398C0B2019002981030C0B295
:10567000312200900199FEF7C3F80398C0B201905F
:1056800002982030C0B2322200900199FEF7B8F89B
:105690000398C0B2019002983030C0B2322200901C
:1056A0000199FEF7ADF80398C0B20190029840301E
:1056B000C0B2322200900199FEF7A2F836E00398BA
:1056C000C0B201900298C0B2302200900199FEF75A
:1056D00097F80398C0B2019002981030C0B23122FE
:1056E00000900199FEF78CF80398C0B201900298DF
:1056F0002030C0B2322200900199FEF781F8039861
:10570000C0B2019002983030C0B2322200900199AC
:10571000FEF776F80398C0B2019002984030C0B20C
:10572000322200900199FEF76BF800BF00BF05B070
:1057300000BD70B504460D46164616B1B6F5B47FE9
:1057400013D1E9B2E0B20322FEF7B2F8E9B204F1F4
:105750001002D0B20422FEF7ABF8E9B204F1200245
:10576000D0B20522FEF7A4F8A4E0002E15DD5A2ED3
:1057700013DAE9B2E0B20022FEF79AF8E9B204F1D6
:105780001002D0B20322FEF793F8E9B204F120022E
:10579000D0B20422FEF78CF88CE05A2E13D1E9B275
:1057A000E0B20022FEF784F8E9B204F11002D0B2B0
:1057B0000422FEF77DF8E9B204F12002D0B20522FE
:1057C000FEF776F876E05A2E15DDB42E13DAE9B23C
:1057D000E0B20022FEF76CF8E9B204F11002D0B298
:1057E0000122FEF765F8E9B204F12002D0B20422EA
:1057F000FEF75EF85EE0B42E13D1E9B2E0B201220A
:10580000FEF756F8E9B204F11002D0B20422FEF716
:105810004FF8E9B204F12002D0B20522FEF748F8B1
:1058200048E0B42E16DDB6F5877F13DAE9B2E0B2B0
:105830000222FEF73DF8E9B204F11002D0B20122D3
:10584000FEF736F8E9B204F12002D0B20422FEF7E6
:105850002FF82FE0B6F5877F13D1E9B2E0B202222C
:10586000FEF726F8E9B204F11002D0B20422FEF7E6
:105870001FF8E9B204F12002D0B20522FEF718F8B1
:1058800018E0B6F5877F15DDB6F5B47F12DAE9B218
:10589000E0B20222FEF70CF8E9B204F11002D0B235
:1058A0000322FEF705F8E9B204F12002D0B2042287
:1058B000FDF7FEFF70BD00000FB4054B10B503A946
:1058C000044A029800F0FAF810BC5DF814FB0000DE
:1058D00001620008DC18002002480068C0F30220C2
:1058E000704700000CED00E010B5002804DB0A074B
:1058F000130E054A135406E00A07140E034A00F07B
:105900000F031B1FD45410BD00E400E018ED00E0AD
:1059100000487047E018002002E008C8121F08C1C4
:10592000002AFAD170477047002001E001C1121F20
:10593000002AFBD1704700002DE9FF5F82B00021F3
:10594000DDE90430020DDDF840B0034318D044F621
:105950001050A2F2FF3242431514119801281FD0B3
:10596000A5EB0B00401C5FEA000A4FF000064E4F0B
:10597000DFF83891B046504615D5CAF1000413E05F
:10598000119801244AA3012801D16FEA0B01029862
:10599000119AC0E90031C0E9024206B0BDE8F09FAB
:1059A000CBF10000DFE704460021404A491842EBF2
:1059B0000450CDE9001012E0E00707D032463B4624
:1059C00040464946FAF74AFD8046894632463B46FC
:1059D00010461946FAF742FD06460F466410002CA1
:1059E000EAD1DDE90401DDE90023BAF1000F06DAAE
:1059F000FAF734FD42464B46FAF730FD05E0FAF778
:105A00009FFD42464B46FAF79BFD04460E46002298
:105A1000284BFAF71DFE03D84FF0FF30014607E090
:105A20000022254B20463146FAF771FCFAF7F7FDC4
:105A3000102409E0002C0ADB0A220023FAF7E3FB1A
:105A4000039B30321A55641E50EA0102F2D1641CE5
:105A5000039AC4F111031444119A012A03D00122BC
:105A600008430DD10AE0084304D000204FF0110B89
:105A7000119072E7A3EB0B056D1E0DE05B4504DD95
:105A80004FF0000205F1010504E003DA4FF00002D7
:105A9000A5F10105002AECD002981199C0E9023164
:105AA000C0E9004579E70000000014400000F03F25
:105AB000300000000000F0430000E03F2DE9FF4F00
:105AC00095B09B468946064600250FE2252877D1EA
:105AD00000242746F84A0121059400E0044316F803
